{
  "_format": "hh-sol-artifact-1",
  "contractName": "YourNFT",
  "sourceName": "contracts/YourNFT.sol",
  "abi": [
    {
      "inputs": [],
      "stateMutability": "nonpayable",
      "type": "constructor"
    },
    {
      "anonymous": false,
      "inputs": [
        {
          "indexed": true,
          "internalType": "address",
          "name": "owner",
          "type": "address"
        },
        {
          "indexed": true,
          "internalType": "address",
          "name": "approved",
          "type": "address"
        },
        {
          "indexed": true,
          "internalType": "uint256",
          "name": "tokenId",
          "type": "uint256"
        }
      ],
      "name": "Approval",
      "type": "event"
    },
    {
      "anonymous": false,
      "inputs": [
        {
          "indexed": true,
          "internalType": "address",
          "name": "owner",
          "type": "address"
        },
        {
          "indexed": true,
          "internalType": "address",
          "name": "operator",
          "type": "address"
        },
        {
          "indexed": false,
          "internalType": "bool",
          "name": "approved",
          "type": "bool"
        }
      ],
      "name": "ApprovalForAll",
      "type": "event"
    },
    {
      "anonymous": false,
      "inputs": [
        {
          "indexed": true,
          "internalType": "address",
          "name": "previousOwner",
          "type": "address"
        },
        {
          "indexed": true,
          "internalType": "address",
          "name": "newOwner",
          "type": "address"
        }
      ],
      "name": "OwnershipTransferred",
      "type": "event"
    },
    {
      "anonymous": false,
      "inputs": [
        {
          "indexed": true,
          "internalType": "address",
          "name": "from",
          "type": "address"
        },
        {
          "indexed": true,
          "internalType": "address",
          "name": "to",
          "type": "address"
        },
        {
          "indexed": true,
          "internalType": "uint256",
          "name": "tokenId",
          "type": "uint256"
        }
      ],
      "name": "Transfer",
      "type": "event"
    },
    {
      "anonymous": false,
      "inputs": [
        {
          "indexed": false,
          "internalType": "uint256",
          "name": "index",
          "type": "uint256"
        },
        {
          "indexed": false,
          "internalType": "address",
          "name": "receiver",
          "type": "address"
        }
      ],
      "name": "exchangeDone",
      "type": "event"
    },
    {
      "anonymous": false,
      "inputs": [
        {
          "indexed": false,
          "internalType": "uint256",
          "name": "prev",
          "type": "uint256"
        },
        {
          "indexed": false,
          "internalType": "uint256",
          "name": "next",
          "type": "uint256"
        }
      ],
      "name": "maxMintNFTChanged",
      "type": "event"
    },
    {
      "anonymous": false,
      "inputs": [
        {
          "indexed": false,
          "internalType": "uint256",
          "name": "sendTokenId",
          "type": "uint256"
        },
        {
          "indexed": false,
          "internalType": "uint256",
          "name": "receiveTokenId",
          "type": "uint256"
        },
        {
          "indexed": false,
          "internalType": "string",
          "name": "text",
          "type": "string"
        },
        {
          "indexed": false,
          "internalType": "uint256",
          "name": "timestamp",
          "type": "uint256"
        },
        {
          "indexed": false,
          "internalType": "bool",
          "name": "isDone",
          "type": "bool"
        }
      ],
      "name": "newExchange",
      "type": "event"
    },
    {
      "inputs": [
        {
          "internalType": "uint256",
          "name": "",
          "type": "uint256"
        }
      ],
      "name": "NFTAttributes",
      "outputs": [
        {
          "internalType": "string",
          "name": "name",
          "type": "string"
        },
        {
          "internalType": "string",
          "name": "description",
          "type": "string"
        },
        {
          "internalType": "string",
          "name": "imageURL",
          "type": "string"
        }
      ],
      "stateMutability": "view",
      "type": "function"
    },
    {
      "inputs": [
        {
          "internalType": "uint256",
          "name": "_index",
          "type": "uint256"
        }
      ],
      "name": "accept",
      "outputs": [],
      "stateMutability": "nonpayable",
      "type": "function"
    },
    {
      "inputs": [
        {
          "internalType": "address",
          "name": "to",
          "type": "address"
        },
        {
          "internalType": "uint256",
          "name": "tokenId",
          "type": "uint256"
        }
      ],
      "name": "approve",
      "outputs": [],
      "stateMutability": "nonpayable",
      "type": "function"
    },
    {
      "inputs": [
        {
          "internalType": "address",
          "name": "owner",
          "type": "address"
        }
      ],
      "name": "balanceOf",
      "outputs": [
        {
          "internalType": "uint256",
          "name": "",
          "type": "uint256"
        }
      ],
      "stateMutability": "view",
      "type": "function"
    },
    {
      "inputs": [
        {
          "internalType": "uint256",
          "name": "_maxMinNFT",
          "type": "uint256"
        }
      ],
      "name": "changeMaxMintNFT",
      "outputs": [],
      "stateMutability": "nonpayable",
      "type": "function"
    },
    {
      "inputs": [
        {
          "internalType": "uint256",
          "name": "_index",
          "type": "uint256"
        }
      ],
      "name": "deny",
      "outputs": [],
      "stateMutability": "nonpayable",
      "type": "function"
    },
    {
      "inputs": [
        {
          "internalType": "uint256",
          "name": "tokenId",
          "type": "uint256"
        }
      ],
      "name": "getApproved",
      "outputs": [
        {
          "internalType": "address",
          "name": "",
          "type": "address"
        }
      ],
      "stateMutability": "view",
      "type": "function"
    },
    {
      "inputs": [],
      "name": "getExchanges",
      "outputs": [
        {
          "components": [
            {
              "internalType": "uint256",
              "name": "sendTokenId",
              "type": "uint256"
            },
            {
              "internalType": "address",
              "name": "sender",
              "type": "address"
            },
            {
              "internalType": "uint256",
              "name": "receiveTokenId",
              "type": "uint256"
            },
            {
              "internalType": "address",
              "name": "receiver",
              "type": "address"
            },
            {
              "internalType": "string",
              "name": "text",
              "type": "string"
            },
            {
              "internalType": "uint256",
              "name": "timestamp",
              "type": "uint256"
            },
            {
              "internalType": "bool",
              "name": "isDone",
              "type": "bool"
            }
          ],
          "internalType": "struct YourNFT.Exchange[]",
          "name": "",
          "type": "tuple[]"
        }
      ],
      "stateMutability": "view",
      "type": "function"
    },
    {
      "inputs": [],
      "name": "getTotalTokens",
      "outputs": [
        {
          "internalType": "uint256",
          "name": "",
          "type": "uint256"
        }
      ],
      "stateMutability": "view",
      "type": "function"
    },
    {
      "inputs": [
        {
          "internalType": "address",
          "name": "owner",
          "type": "address"
        },
        {
          "internalType": "address",
          "name": "operator",
          "type": "address"
        }
      ],
      "name": "isApprovedForAll",
      "outputs": [
        {
          "internalType": "bool",
          "name": "",
          "type": "bool"
        }
      ],
      "stateMutability": "view",
      "type": "function"
    },
    {
      "inputs": [],
      "name": "maxMintNFT",
      "outputs": [
        {
          "internalType": "uint256",
          "name": "",
          "type": "uint256"
        }
      ],
      "stateMutability": "view",
      "type": "function"
    },
    {
      "inputs": [
        {
          "internalType": "string",
          "name": "_name",
          "type": "string"
        },
        {
          "internalType": "string",
          "name": "_description",
          "type": "string"
        },
        {
          "internalType": "string",
          "name": "_imageURL",
          "type": "string"
        }
      ],
      "name": "mintIpfsNFT",
      "outputs": [],
      "stateMutability": "nonpayable",
      "type": "function"
    },
    {
      "inputs": [],
      "name": "name",
      "outputs": [
        {
          "internalType": "string",
          "name": "",
          "type": "string"
        }
      ],
      "stateMutability": "view",
      "type": "function"
    },
    {
      "inputs": [],
      "name": "owner",
      "outputs": [
        {
          "internalType": "address",
          "name": "",
          "type": "address"
        }
      ],
      "stateMutability": "view",
      "type": "function"
    },
    {
      "inputs": [
        {
          "internalType": "uint256",
          "name": "tokenId",
          "type": "uint256"
        }
      ],
      "name": "ownerOf",
      "outputs": [
        {
          "internalType": "address",
          "name": "",
          "type": "address"
        }
      ],
      "stateMutability": "view",
      "type": "function"
    },
    {
      "inputs": [],
      "name": "renounceOwnership",
      "outputs": [],
      "stateMutability": "nonpayable",
      "type": "function"
    },
    {
      "inputs": [
        {
          "internalType": "uint256",
          "name": "_sendTokenId",
          "type": "uint256"
        },
        {
          "internalType": "uint256",
          "name": "_receiveTokenId",
          "type": "uint256"
        },
        {
          "internalType": "string",
          "name": "_text",
          "type": "string"
        }
      ],
      "name": "requestExchange",
      "outputs": [],
      "stateMutability": "nonpayable",
      "type": "function"
    },
    {
      "inputs": [
        {
          "internalType": "address",
          "name": "from",
          "type": "address"
        },
        {
          "internalType": "address",
          "name": "to",
          "type": "address"
        },
        {
          "internalType": "uint256",
          "name": "tokenId",
          "type": "uint256"
        }
      ],
      "name": "safeTransferFrom",
      "outputs": [],
      "stateMutability": "nonpayable",
      "type": "function"
    },
    {
      "inputs": [
        {
          "internalType": "address",
          "name": "from",
          "type": "address"
        },
        {
          "internalType": "address",
          "name": "to",
          "type": "address"
        },
        {
          "internalType": "uint256",
          "name": "tokenId",
          "type": "uint256"
        },
        {
          "internalType": "bytes",
          "name": "data",
          "type": "bytes"
        }
      ],
      "name": "safeTransferFrom",
      "outputs": [],
      "stateMutability": "nonpayable",
      "type": "function"
    },
    {
      "inputs": [
        {
          "internalType": "address",
          "name": "operator",
          "type": "address"
        },
        {
          "internalType": "bool",
          "name": "approved",
          "type": "bool"
        }
      ],
      "name": "setApprovalForAll",
      "outputs": [],
      "stateMutability": "nonpayable",
      "type": "function"
    },
    {
      "inputs": [
        {
          "internalType": "bytes4",
          "name": "interfaceId",
          "type": "bytes4"
        }
      ],
      "name": "supportsInterface",
      "outputs": [
        {
          "internalType": "bool",
          "name": "",
          "type": "bool"
        }
      ],
      "stateMutability": "view",
      "type": "function"
    },
    {
      "inputs": [],
      "name": "symbol",
      "outputs": [
        {
          "internalType": "string",
          "name": "",
          "type": "string"
        }
      ],
      "stateMutability": "view",
      "type": "function"
    },
    {
      "inputs": [
        {
          "internalType": "uint256",
          "name": "_tokenId",
          "type": "uint256"
        }
      ],
      "name": "tokenURI",
      "outputs": [
        {
          "internalType": "string",
          "name": "",
          "type": "string"
        }
      ],
      "stateMutability": "view",
      "type": "function"
    },
    {
      "inputs": [
        {
          "internalType": "address",
          "name": "from",
          "type": "address"
        },
        {
          "internalType": "address",
          "name": "to",
          "type": "address"
        },
        {
          "internalType": "uint256",
          "name": "tokenId",
          "type": "uint256"
        }
      ],
      "name": "transferFrom",
      "outputs": [],
      "stateMutability": "nonpayable",
      "type": "function"
    },
    {
      "inputs": [
        {
          "internalType": "address",
          "name": "newOwner",
          "type": "address"
        }
      ],
      "name": "transferOwnership",
      "outputs": [],
      "stateMutability": "nonpayable",
      "type": "function"
    }
  ],
  "bytecode": "0x6080604052600a80553480156200001557600080fd5b506040518060400160405280600781526020017f596f75724e4654000000000000000000000000000000000000000000000000008152506040518060400160405280600481526020017f594e46540000000000000000000000000000000000000000000000000000000081525081600090816200009391906200052d565b508060019081620000a591906200052d565b505050620000c8620000bc6200011960201b60201c565b6200012160201b60201c565b620001136040518060400160405280601c81526020017f48656c6c6f212049276d20596f75724e465420436f6e74726163742e00000000815250620001e760201b620014b61760201c565b620006c7565b600033905090565b6000600760009054906101000a900473ffffffffffffffffffffffffffffffffffffffff16905081600760006101000a81548173ffffffffffffffffffffffffffffffffffffffff021916908373ffffffffffffffffffffffffffffffffffffffff1602179055508173ffffffffffffffffffffffffffffffffffffffff168173ffffffffffffffffffffffffffffffffffffffff167f8be0079c531659141344cd1fd0a4f28419497f9722a3daafe3b4186f6b6457e060405160405180910390a35050565b6200028781604051602401620001fe9190620006a3565b6040516020818303038152906040527f41304fac000000000000000000000000000000000000000000000000000000007bffffffffffffffffffffffffffffffffffffffffffffffffffffffff19166020820180517bffffffffffffffffffffffffffffffffffffffffffffffffffffffff83818316178352505050506200028a60201b60201c565b50565b60008151905060006a636f6e736f6c652e6c6f679050602083016000808483855afa5050505050565b600081519050919050565b7f4e487b7100000000000000000000000000000000000000000000000000000000600052604160045260246000fd5b7f4e487b7100000000000000000000000000000000000000000000000000000000600052602260045260246000fd5b600060028204905060018216806200033557607f821691505b6020821081036200034b576200034a620002ed565b5b50919050565b60008190508160005260206000209050919050565b60006020601f8301049050919050565b600082821b905092915050565b600060088302620003b57fffffffffffffffffffffffffffffffffffffffffffffffffffffffffffffffff8262000376565b620003c1868362000376565b95508019841693508086168417925050509392505050565b6000819050919050565b6000819050919050565b60006200040e620004086200040284620003d9565b620003e3565b620003d9565b9050919050565b6000819050919050565b6200042a83620003ed565b62000442620004398262000415565b84845462000383565b825550505050565b600090565b620004596200044a565b620004668184846200041f565b505050565b5b818110156200048e57620004826000826200044f565b6001810190506200046c565b5050565b601f821115620004dd57620004a78162000351565b620004b28462000366565b81016020851015620004c2578190505b620004da620004d18562000366565b8301826200046b565b50505b505050565b600082821c905092915050565b60006200050260001984600802620004e2565b1980831691505092915050565b60006200051d8383620004ef565b9150826002028217905092915050565b6200053882620002b3565b67ffffffffffffffff811115620005545762000553620002be565b5b6200056082546200031c565b6200056d82828562000492565b600060209050601f831160018114620005a5576000841562000590578287015190505b6200059c85826200050f565b8655506200060c565b601f198416620005b58662000351565b60005b82811015620005df57848901518255600182019150602085019450602081019050620005b8565b86831015620005ff5784890151620005fb601f891682620004ef565b8355505b6001600288020188555050505b505050505050565b600082825260208201905092915050565b60005b838110156200064557808201518184015260208101905062000628565b60008484015250505050565b6000601f19601f8301169050919050565b60006200066f82620002b3565b6200067b818562000614565b93506200068d81856020860162000625565b620006988162000651565b840191505092915050565b60006020820190508181036000830152620006bf818462000662565b905092915050565b6141e880620006d76000396000f3fe608060405234801561001057600080fd5b50600436106101735760003560e01c80636602d03b116100de578063b88d4fde11610097578063e985e9c511610071578063e985e9c514610434578063f08b82e614610464578063f2fde38b14610482578063f7f686b51461049e57610173565b8063b88d4fde146103cc578063c87b56dd146103e8578063cc19063b1461041857610173565b80636602d03b1461030857806370a082311461033a578063715018a61461036a5780638da5cb5b1461037457806395d89b4114610392578063a22cb465146103b057610173565b80631e2e3a6b116101305780631e2e3a6b1461024a57806323b872dd1461026857806342842e0e14610284578063545b73b7146102a057806356f66282146102bc5780636352211e146102d857610173565b806301ffc9a71461017857806306fdde03146101a8578063081812fc146101c6578063095ea7b3146101f6578063138e1bdd1461021257806319b05f491461022e575b600080fd5b610192600480360381019061018d919061285f565b6104bc565b60405161019f91906128a7565b60405180910390f35b6101b061059e565b6040516101bd9190612952565b60405180910390f35b6101e060048036038101906101db91906129aa565b610630565b6040516101ed9190612a18565b60405180910390f35b610210600480360381019061020b9190612a5f565b610676565b005b61022c60048036038101906102279190612bd4565b61078d565b005b610248600480360381019061024391906129aa565b610870565b005b61025261090d565b60405161025f9190612e50565b60405180910390f35b610282600480360381019061027d9190612e72565b610ae3565b005b61029e60048036038101906102999190612e72565b610b43565b005b6102ba60048036038101906102b59190612ec5565b610b63565b005b6102d660048036038101906102d191906129aa565b610dab565b005b6102f260048036038101906102ed91906129aa565b610e12565b6040516102ff9190612a18565b60405180910390f35b610322600480360381019061031d91906129aa565b610e98565b60405161033193929190612f34565b60405180910390f35b610354600480360381019061034f9190612f80565b61106a565b6040516103619190612fbc565b60405180910390f35b610372611121565b005b61037c611135565b6040516103899190612a18565b60405180910390f35b61039a61115f565b6040516103a79190612952565b60405180910390f35b6103ca60048036038101906103c59190613003565b6111f1565b005b6103e660048036038101906103e191906130e4565b611207565b005b61040260048036038101906103fd91906129aa565b611269565b60405161040f9190612952565b60405180910390f35b610432600480360381019061042d91906129aa565b611333565b005b61044e60048036038101906104499190613167565b611388565b60405161045b91906128a7565b60405180910390f35b61046c61141c565b6040516104799190612fbc565b60405180910390f35b61049c60048036038101906104979190612f80565b61142d565b005b6104a66114b0565b6040516104b39190612fbc565b60405180910390f35b60007f80ac58cd000000000000000000000000000000000000000000000000000000007bffffffffffffffffffffffffffffffffffffffffffffffffffffffff1916827bffffffffffffffffffffffffffffffffffffffffffffffffffffffff1916148061058757507f5b5e139f000000000000000000000000000000000000000000000000000000007bffffffffffffffffffffffffffffffffffffffffffffffffffffffff1916827bffffffffffffffffffffffffffffffffffffffffffffffffffffffff1916145b8061059757506105968261154f565b5b9050919050565b6060600080546105ad906131d6565b80601f01602080910402602001604051908101604052809291908181526020018280546105d9906131d6565b80156106265780601f106105fb57610100808354040283529160200191610626565b820191906000526020600020905b81548152906001019060200180831161060957829003601f168201915b5050505050905090565b600061063b826115b9565b6004600083815260200190815260200160002060009054906101000a900473ffffffffffffffffffffffffffffffffffffffff169050919050565b600061068182610e12565b90508073ffffffffffffffffffffffffffffffffffffffff168373ffffffffffffffffffffffffffffffffffffffff16036106f1576040517f08c379a00000000000000000000000000000000000000000000000000000000081526004016106e890613279565b60405180910390fd5b8073ffffffffffffffffffffffffffffffffffffffff16610710611604565b73ffffffffffffffffffffffffffffffffffffffff16148061073f575061073e81610739611604565b611388565b5b61077e576040517f08c379a00000000000000000000000000000000000000000000000000000000081526004016107759061330b565b60405180910390fd5b610788838361160c565b505050565b6000610799600b6116c5565b9050600a5481106107a957600080fd5b6107b333826116d3565b60096040518060600160405280868152602001858152602001848152509080600181540180825580915050600190039060005260206000209060030201600090919091909150600082015181600001908161080e91906134d7565b50602082015181600101908161082491906134d7565b50604082015181600201908161083a91906134d7565b5050506108606040518060600160405280602281526020016141916022913982336116f1565b61086a600b611790565b50505050565b600061087b826117a6565b90506108983361088e8360000154610e12565b8360020154610ae3565b6108b36108a88260000154610e12565b338360000154611900565b60018160060160006101000a81548160ff0219169083151502179055507fabe35d9fee2c9a216bdb95f373032663c235382e47507ae1d52afdf66abe350782336040516109019291906135a9565b60405180910390a15050565b60606008805480602002602001604051908101604052809291908181526020016000905b82821015610ada57838290600052602060002090600702016040518060e0016040529081600082015481526020016001820160009054906101000a900473ffffffffffffffffffffffffffffffffffffffff1673ffffffffffffffffffffffffffffffffffffffff1673ffffffffffffffffffffffffffffffffffffffff168152602001600282015481526020016003820160009054906101000a900473ffffffffffffffffffffffffffffffffffffffff1673ffffffffffffffffffffffffffffffffffffffff1673ffffffffffffffffffffffffffffffffffffffff168152602001600482018054610a24906131d6565b80601f0160208091040260200160405190810160405280929190818152602001828054610a50906131d6565b8015610a9d5780601f10610a7257610100808354040283529160200191610a9d565b820191906000526020600020905b815481529060010190602001808311610a8057829003601f168201915b50505050508152602001600582015481526020016006820160009054906101000a900460ff16151515158152505081526020019060010190610931565b50505050905090565b610af4610aee611604565b82611bf9565b610b33576040517f08c379a0000000000000000000000000000000000000000000000000000000008152600401610b2a90613644565b60405180910390fd5b610b3e838383611900565b505050565b610b5e83838360405180602001604052806000815250611207565b505050565b3373ffffffffffffffffffffffffffffffffffffffff16610b8384610e12565b73ffffffffffffffffffffffffffffffffffffffff1614610ba357600080fd5b3373ffffffffffffffffffffffffffffffffffffffff16610bc383610e12565b73ffffffffffffffffffffffffffffffffffffffff1603610be357600080fd5b60086040518060e001604052808581526020013373ffffffffffffffffffffffffffffffffffffffff168152602001848152602001610c2185610e12565b73ffffffffffffffffffffffffffffffffffffffff1681526020018381526020014281526020016000151581525090806001815401808255809150506001900390600052602060002090600702016000909190919091506000820151816000015560208201518160010160006101000a81548173ffffffffffffffffffffffffffffffffffffffff021916908373ffffffffffffffffffffffffffffffffffffffff1602179055506040820151816002015560608201518160030160006101000a81548173ffffffffffffffffffffffffffffffffffffffff021916908373ffffffffffffffffffffffffffffffffffffffff1602179055506080820151816004019081610d2f91906134d7565b5060a0820151816005015560c08201518160060160006101000a81548160ff0219169083151502179055505050610d663084610676565b7f890e5077d903fa413a9d8b7fbb5b43561fe217d62689f3417c2e560e593f358b838383426000604051610d9e959493929190613664565b60405180910390a1505050565b6000610db6826117a6565b905060018160060160006101000a81548160ff0219169083151502179055507fabe35d9fee2c9a216bdb95f373032663c235382e47507ae1d52afdf66abe35078233604051610e069291906135a9565b60405180910390a15050565b600080610e1e83611c8e565b9050600073ffffffffffffffffffffffffffffffffffffffff168173ffffffffffffffffffffffffffffffffffffffff1603610e8f576040517f08c379a0000000000000000000000000000000000000000000000000000000008152600401610e869061370a565b60405180910390fd5b80915050919050565b60098181548110610ea857600080fd5b9060005260206000209060030201600091509050806000018054610ecb906131d6565b80601f0160208091040260200160405190810160405280929190818152602001828054610ef7906131d6565b8015610f445780601f10610f1957610100808354040283529160200191610f44565b820191906000526020600020905b815481529060010190602001808311610f2757829003601f168201915b505050505090806001018054610f59906131d6565b80601f0160208091040260200160405190810160405280929190818152602001828054610f85906131d6565b8015610fd25780601f10610fa757610100808354040283529160200191610fd2565b820191906000526020600020905b815481529060010190602001808311610fb557829003601f168201915b505050505090806002018054610fe7906131d6565b80601f0160208091040260200160405190810160405280929190818152602001828054611013906131d6565b80156110605780601f1061103557610100808354040283529160200191611060565b820191906000526020600020905b81548152906001019060200180831161104357829003601f168201915b5050505050905083565b60008073ffffffffffffffffffffffffffffffffffffffff168273ffffffffffffffffffffffffffffffffffffffff16036110da576040517f08c379a00000000000000000000000000000000000000000000000000000000081526004016110d19061379c565b60405180910390fd5b600360008373ffffffffffffffffffffffffffffffffffffffff1673ffffffffffffffffffffffffffffffffffffffff168152602001908152602001600020549050919050565b611129611ccb565b6111336000611d49565b565b6000600760009054906101000a900473ffffffffffffffffffffffffffffffffffffffff16905090565b60606001805461116e906131d6565b80601f016020809104026020016040519081016040528092919081815260200182805461119a906131d6565b80156111e75780601f106111bc576101008083540402835291602001916111e7565b820191906000526020600020905b8154815290600101906020018083116111ca57829003601f168201915b5050505050905090565b6112036111fc611604565b8383611e0f565b5050565b611218611212611604565b83611bf9565b611257576040517f08c379a000000000000000000000000000000000000000000000000000000000815260040161124e90613644565b60405180910390fd5b61126384848484611f7b565b50505050565b606061130d60098381548110611282576112816137bc565b5b906000526020600020906003020160000161129c84611fd7565b600985815481106112b0576112af6137bc565b5b9060005260206000209060030201600101600986815481106112d5576112d46137bc565b5b90600052602060002090600302016002016040516020016112f99493929190613a26565b6040516020818303038152906040526120a5565b60405160200161131d9190613ae7565b6040516020818303038152906040529050919050565b61133b611ccb565b6000600a54905081600a819055507f3ddc16933248306847c8cee357f8bf5e60dc83fac42737e98f55d7d895f69b5f81600a5460405161137c929190613b09565b60405180910390a15050565b6000600560008473ffffffffffffffffffffffffffffffffffffffff1673ffffffffffffffffffffffffffffffffffffffff16815260200190815260200160002060008373ffffffffffffffffffffffffffffffffffffffff1673ffffffffffffffffffffffffffffffffffffffff16815260200190815260200160002060009054906101000a900460ff16905092915050565b6000611428600b6116c5565b905090565b611435611ccb565b600073ffffffffffffffffffffffffffffffffffffffff168173ffffffffffffffffffffffffffffffffffffffff16036114a4576040517f08c379a000000000000000000000000000000000000000000000000000000000815260040161149b90613ba4565b60405180910390fd5b6114ad81611d49565b50565b600a5481565b61154c816040516024016114ca9190612952565b6040516020818303038152906040527f41304fac000000000000000000000000000000000000000000000000000000007bffffffffffffffffffffffffffffffffffffffffffffffffffffffff19166020820180517bffffffffffffffffffffffffffffffffffffffffffffffffffffffff8381831617835250505050612208565b50565b60007f01ffc9a7000000000000000000000000000000000000000000000000000000007bffffffffffffffffffffffffffffffffffffffffffffffffffffffff1916827bffffffffffffffffffffffffffffffffffffffffffffffffffffffff1916149050919050565b6115c281612231565b611601576040517f08c379a00000000000000000000000000000000000000000000000000000000081526004016115f89061370a565b60405180910390fd5b50565b600033905090565b816004600083815260200190815260200160002060006101000a81548173ffffffffffffffffffffffffffffffffffffffff021916908373ffffffffffffffffffffffffffffffffffffffff160217905550808273ffffffffffffffffffffffffffffffffffffffff1661167f83610e12565b73ffffffffffffffffffffffffffffffffffffffff167f8c5be1e5ebec7d5bd14f71427d1e84f3dd0314c0f7b2291e5b200ac8c7c3b92560405160405180910390a45050565b600081600001549050919050565b6116ed828260405180602001604052806000815250612272565b5050565b61178b83838360405160240161170993929190613bc4565b6040516020818303038152906040527f1c7ec448000000000000000000000000000000000000000000000000000000007bffffffffffffffffffffffffffffffffffffffffffffffffffffffff19166020820180517bffffffffffffffffffffffffffffffffffffffffffffffffffffffff8381831617835250505050612208565b505050565b6001816000016000828254019250508190555050565b600080600883815481106117bd576117bc6137bc565b5b90600052602060002090600702019050600015158160060160009054906101000a900460ff161515146117ef57600080fd5b3373ffffffffffffffffffffffffffffffffffffffff168160030160009054906101000a900473ffffffffffffffffffffffffffffffffffffffff1673ffffffffffffffffffffffffffffffffffffffff161461184b57600080fd5b3373ffffffffffffffffffffffffffffffffffffffff1661186f8260020154610e12565b73ffffffffffffffffffffffffffffffffffffffff161461188f57600080fd5b8060010160009054906101000a900473ffffffffffffffffffffffffffffffffffffffff1673ffffffffffffffffffffffffffffffffffffffff166118d78260000154610e12565b73ffffffffffffffffffffffffffffffffffffffff16146118f757600080fd5b80915050919050565b8273ffffffffffffffffffffffffffffffffffffffff1661192082610e12565b73ffffffffffffffffffffffffffffffffffffffff1614611976576040517f08c379a000000000000000000000000000000000000000000000000000000000815260040161196d90613c74565b60405180910390fd5b600073ffffffffffffffffffffffffffffffffffffffff168273ffffffffffffffffffffffffffffffffffffffff16036119e5576040517f08c379a00000000000000000000000000000000000000000000000000000000081526004016119dc90613d06565b60405180910390fd5b6119f283838360016122cd565b8273ffffffffffffffffffffffffffffffffffffffff16611a1282610e12565b73ffffffffffffffffffffffffffffffffffffffff1614611a68576040517f08c379a0000000000000000000000000000000000000000000000000000000008152600401611a5f90613c74565b60405180910390fd5b6004600082815260200190815260200160002060006101000a81549073ffffffffffffffffffffffffffffffffffffffff02191690556001600360008573ffffffffffffffffffffffffffffffffffffffff1673ffffffffffffffffffffffffffffffffffffffff168152602001908152602001600020600082825403925050819055506001600360008473ffffffffffffffffffffffffffffffffffffffff1673ffffffffffffffffffffffffffffffffffffffff16815260200190815260200160002060008282540192505081905550816002600083815260200190815260200160002060006101000a81548173ffffffffffffffffffffffffffffffffffffffff021916908373ffffffffffffffffffffffffffffffffffffffff160217905550808273ffffffffffffffffffffffffffffffffffffffff168473ffffffffffffffffffffffffffffffffffffffff167fddf252ad1be2c89b69c2b068fc378daa952ba7f163c4a11628f55a4df523b3ef60405160405180910390a4611bf483838360016122d3565b505050565b600080611c0583610e12565b90508073ffffffffffffffffffffffffffffffffffffffff168473ffffffffffffffffffffffffffffffffffffffff161480611c475750611c468185611388565b5b80611c8557508373ffffffffffffffffffffffffffffffffffffffff16611c6d84610630565b73ffffffffffffffffffffffffffffffffffffffff16145b91505092915050565b60006002600083815260200190815260200160002060009054906101000a900473ffffffffffffffffffffffffffffffffffffffff169050919050565b611cd3611604565b73ffffffffffffffffffffffffffffffffffffffff16611cf1611135565b73ffffffffffffffffffffffffffffffffffffffff1614611d47576040517f08c379a0000000000000000000000000000000000000000000000000000000008152600401611d3e90613d72565b60405180910390fd5b565b6000600760009054906101000a900473ffffffffffffffffffffffffffffffffffffffff16905081600760006101000a81548173ffffffffffffffffffffffffffffffffffffffff021916908373ffffffffffffffffffffffffffffffffffffffff1602179055508173ffffffffffffffffffffffffffffffffffffffff168173ffffffffffffffffffffffffffffffffffffffff167f8be0079c531659141344cd1fd0a4f28419497f9722a3daafe3b4186f6b6457e060405160405180910390a35050565b8173ffffffffffffffffffffffffffffffffffffffff168373ffffffffffffffffffffffffffffffffffffffff1603611e7d576040517f08c379a0000000000000000000000000000000000000000000000000000000008152600401611e7490613dde565b60405180910390fd5b80600560008573ffffffffffffffffffffffffffffffffffffffff1673ffffffffffffffffffffffffffffffffffffffff16815260200190815260200160002060008473ffffffffffffffffffffffffffffffffffffffff1673ffffffffffffffffffffffffffffffffffffffff16815260200190815260200160002060006101000a81548160ff0219169083151502179055508173ffffffffffffffffffffffffffffffffffffffff168373ffffffffffffffffffffffffffffffffffffffff167f17307eab39ab6107e8899845ad3d59bd9653f200f220920489ca2b5937696c3183604051611f6e91906128a7565b60405180910390a3505050565b611f86848484611900565b611f92848484846122d9565b611fd1576040517f08c379a0000000000000000000000000000000000000000000000000000000008152600401611fc890613e70565b60405180910390fd5b50505050565b606060006001611fe684612460565b01905060008167ffffffffffffffff81111561200557612004612aa9565b5b6040519080825280601f01601f1916602001820160405280156120375781602001600182028036833780820191505090505b509050600082602001820190505b60011561209a578080600190039150507f3031323334353637383961626364656600000000000000000000000000000000600a86061a8153600a858161208e5761208d613e90565b5b04945060008503612045575b819350505050919050565b606060008251036120c757604051806020016040528060008152509050612203565b600060405180606001604052806040815260200161415160409139905060006003600285516120f69190613eee565b6121009190613f22565b600461210c9190613f53565b67ffffffffffffffff81111561212557612124612aa9565b5b6040519080825280601f01601f1916602001820160405280156121575781602001600182028036833780820191505090505b509050600182016020820185865187015b808210156121c3576003820191508151603f8160121c168501518453600184019350603f81600c1c168501518453600184019350603f8160061c168501518453600184019350603f8116850151845360018401935050612168565b50506003865106600181146121df57600281146121f2576121fa565b603d6001830353603d60028303536121fa565b603d60018303535b50505080925050505b919050565b60008151905060006a636f6e736f6c652e6c6f679050602083016000808483855afa5050505050565b60008073ffffffffffffffffffffffffffffffffffffffff1661225383611c8e565b73ffffffffffffffffffffffffffffffffffffffff1614159050919050565b61227c83836125b3565b61228960008484846122d9565b6122c8576040517f08c379a00000000000000000000000000000000000000000000000000000000081526004016122bf90613e70565b60405180910390fd5b505050565b50505050565b50505050565b60006122fa8473ffffffffffffffffffffffffffffffffffffffff166127d0565b15612453578373ffffffffffffffffffffffffffffffffffffffff1663150b7a02612323611604565b8786866040518563ffffffff1660e01b81526004016123459493929190613fea565b6020604051808303816000875af192505050801561238157506040513d601f19601f8201168201806040525081019061237e919061404b565b60015b612403573d80600081146123b1576040519150601f19603f3d011682016040523d82523d6000602084013e6123b6565b606091505b5060008151036123fb576040517f08c379a00000000000000000000000000000000000000000000000000000000081526004016123f290613e70565b60405180910390fd5b805181602001fd5b63150b7a0260e01b7bffffffffffffffffffffffffffffffffffffffffffffffffffffffff1916817bffffffffffffffffffffffffffffffffffffffffffffffffffffffff191614915050612458565b600190505b949350505050565b600080600090507a184f03e93ff9f4daa797ed6e38ed64bf6a1f01000000000000000083106124be577a184f03e93ff9f4daa797ed6e38ed64bf6a1f01000000000000000083816124b4576124b3613e90565b5b0492506040810190505b6d04ee2d6d415b85acef810000000083106124fb576d04ee2d6d415b85acef810000000083816124f1576124f0613e90565b5b0492506020810190505b662386f26fc10000831061252a57662386f26fc1000083816125205761251f613e90565b5b0492506010810190505b6305f5e1008310612553576305f5e100838161254957612548613e90565b5b0492506008810190505b612710831061257857612710838161256e5761256d613e90565b5b0492506004810190505b6064831061259b576064838161259157612590613e90565b5b0492506002810190505b600a83106125aa576001810190505b80915050919050565b600073ffffffffffffffffffffffffffffffffffffffff168273ffffffffffffffffffffffffffffffffffffffff1603612622576040517f08c379a0000000000000000000000000000000000000000000000000000000008152600401612619906140c4565b60405180910390fd5b61262b81612231565b1561266b576040517f08c379a000000000000000000000000000000000000000000000000000000000815260040161266290614130565b60405180910390fd5b6126796000838360016122cd565b61268281612231565b156126c2576040517f08c379a00000000000000000000000000000000000000000000000000000000081526004016126b990614130565b60405180910390fd5b6001600360008473ffffffffffffffffffffffffffffffffffffffff1673ffffffffffffffffffffffffffffffffffffffff16815260200190815260200160002060008282540192505081905550816002600083815260200190815260200160002060006101000a81548173ffffffffffffffffffffffffffffffffffffffff021916908373ffffffffffffffffffffffffffffffffffffffff160217905550808273ffffffffffffffffffffffffffffffffffffffff16600073ffffffffffffffffffffffffffffffffffffffff167fddf252ad1be2c89b69c2b068fc378daa952ba7f163c4a11628f55a4df523b3ef60405160405180910390a46127cc6000838360016122d3565b5050565b6000808273ffffffffffffffffffffffffffffffffffffffff163b119050919050565b6000604051905090565b600080fd5b600080fd5b60007fffffffff0000000000000000000000000000000000000000000000000000000082169050919050565b61283c81612807565b811461284757600080fd5b50565b60008135905061285981612833565b92915050565b600060208284031215612875576128746127fd565b5b60006128838482850161284a565b91505092915050565b60008115159050919050565b6128a18161288c565b82525050565b60006020820190506128bc6000830184612898565b92915050565b600081519050919050565b600082825260208201905092915050565b60005b838110156128fc5780820151818401526020810190506128e1565b60008484015250505050565b6000601f19601f8301169050919050565b6000612924826128c2565b61292e81856128cd565b935061293e8185602086016128de565b61294781612908565b840191505092915050565b6000602082019050818103600083015261296c8184612919565b905092915050565b6000819050919050565b61298781612974565b811461299257600080fd5b50565b6000813590506129a48161297e565b92915050565b6000602082840312156129c0576129bf6127fd565b5b60006129ce84828501612995565b91505092915050565b600073ffffffffffffffffffffffffffffffffffffffff82169050919050565b6000612a02826129d7565b9050919050565b612a12816129f7565b82525050565b6000602082019050612a2d6000830184612a09565b92915050565b612a3c816129f7565b8114612a4757600080fd5b50565b600081359050612a5981612a33565b92915050565b60008060408385031215612a7657612a756127fd565b5b6000612a8485828601612a4a565b9250506020612a9585828601612995565b9150509250929050565b600080fd5b600080fd5b7f4e487b7100000000000000000000000000000000000000000000000000000000600052604160045260246000fd5b612ae182612908565b810181811067ffffffffffffffff82111715612b0057612aff612aa9565b5b80604052505050565b6000612b136127f3565b9050612b1f8282612ad8565b919050565b600067ffffffffffffffff821115612b3f57612b3e612aa9565b5b612b4882612908565b9050602081019050919050565b82818337600083830152505050565b6000612b77612b7284612b24565b612b09565b905082815260208101848484011115612b9357612b92612aa4565b5b612b9e848285612b55565b509392505050565b600082601f830112612bbb57612bba612a9f565b5b8135612bcb848260208601612b64565b91505092915050565b600080600060608486031215612bed57612bec6127fd565b5b600084013567ffffffffffffffff811115612c0b57612c0a612802565b5b612c1786828701612ba6565b935050602084013567ffffffffffffffff811115612c3857612c37612802565b5b612c4486828701612ba6565b925050604084013567ffffffffffffffff811115612c6557612c64612802565b5b612c7186828701612ba6565b9150509250925092565b600081519050919050565b600082825260208201905092915050565b6000819050602082019050919050565b612cb081612974565b82525050565b612cbf816129f7565b82525050565b600082825260208201905092915050565b6000612ce1826128c2565b612ceb8185612cc5565b9350612cfb8185602086016128de565b612d0481612908565b840191505092915050565b612d188161288c565b82525050565b600060e083016000830151612d366000860182612ca7565b506020830151612d496020860182612cb6565b506040830151612d5c6040860182612ca7565b506060830151612d6f6060860182612cb6565b5060808301518482036080860152612d878282612cd6565b91505060a0830151612d9c60a0860182612ca7565b5060c0830151612daf60c0860182612d0f565b508091505092915050565b6000612dc68383612d1e565b905092915050565b6000602082019050919050565b6000612de682612c7b565b612df08185612c86565b935083602082028501612e0285612c97565b8060005b85811015612e3e5784840389528151612e1f8582612dba565b9450612e2a83612dce565b925060208a01995050600181019050612e06565b50829750879550505050505092915050565b60006020820190508181036000830152612e6a8184612ddb565b905092915050565b600080600060608486031215612e8b57612e8a6127fd565b5b6000612e9986828701612a4a565b9350506020612eaa86828701612a4a565b9250506040612ebb86828701612995565b9150509250925092565b600080600060608486031215612ede57612edd6127fd565b5b6000612eec86828701612995565b9350506020612efd86828701612995565b925050604084013567ffffffffffffffff811115612f1e57612f1d612802565b5b612f2a86828701612ba6565b9150509250925092565b60006060820190508181036000830152612f4e8186612919565b90508181036020830152612f628185612919565b90508181036040830152612f768184612919565b9050949350505050565b600060208284031215612f9657612f956127fd565b5b6000612fa484828501612a4a565b91505092915050565b612fb681612974565b82525050565b6000602082019050612fd16000830184612fad565b92915050565b612fe08161288c565b8114612feb57600080fd5b50565b600081359050612ffd81612fd7565b92915050565b6000806040838503121561301a576130196127fd565b5b600061302885828601612a4a565b925050602061303985828601612fee565b9150509250929050565b600067ffffffffffffffff82111561305e5761305d612aa9565b5b61306782612908565b9050602081019050919050565b600061308761308284613043565b612b09565b9050828152602081018484840111156130a3576130a2612aa4565b5b6130ae848285612b55565b509392505050565b600082601f8301126130cb576130ca612a9f565b5b81356130db848260208601613074565b91505092915050565b600080600080608085870312156130fe576130fd6127fd565b5b600061310c87828801612a4a565b945050602061311d87828801612a4a565b935050604061312e87828801612995565b925050606085013567ffffffffffffffff81111561314f5761314e612802565b5b61315b878288016130b6565b91505092959194509250565b6000806040838503121561317e5761317d6127fd565b5b600061318c85828601612a4a565b925050602061319d85828601612a4a565b9150509250929050565b7f4e487b7100000000000000000000000000000000000000000000000000000000600052602260045260246000fd5b600060028204905060018216806131ee57607f821691505b602082108103613201576132006131a7565b5b50919050565b7f4552433732313a20617070726f76616c20746f2063757272656e74206f776e6560008201527f7200000000000000000000000000000000000000000000000000000000000000602082015250565b60006132636021836128cd565b915061326e82613207565b604082019050919050565b6000602082019050818103600083015261329281613256565b9050919050565b7f4552433732313a20617070726f76652063616c6c6572206973206e6f7420746f60008201527f6b656e206f776e6572206f7220617070726f76656420666f7220616c6c000000602082015250565b60006132f5603d836128cd565b915061330082613299565b604082019050919050565b60006020820190508181036000830152613324816132e8565b9050919050565b60008190508160005260206000209050919050565b60006020601f8301049050919050565b600082821b905092915050565b60006008830261338d7fffffffffffffffffffffffffffffffffffffffffffffffffffffffffffffffff82613350565b6133978683613350565b95508019841693508086168417925050509392505050565b6000819050919050565b60006133d46133cf6133ca84612974565b6133af565b612974565b9050919050565b6000819050919050565b6133ee836133b9565b6134026133fa826133db565b84845461335d565b825550505050565b600090565b61341761340a565b6134228184846133e5565b505050565b5b818110156134465761343b60008261340f565b600181019050613428565b5050565b601f82111561348b5761345c8161332b565b61346584613340565b81016020851015613474578190505b61348861348085613340565b830182613427565b50505b505050565b600082821c905092915050565b60006134ae60001984600802613490565b1980831691505092915050565b60006134c7838361349d565b9150826002028217905092915050565b6134e0826128c2565b67ffffffffffffffff8111156134f9576134f8612aa9565b5b61350382546131d6565b61350e82828561344a565b600060209050601f831160018114613541576000841561352f578287015190505b61353985826134bb565b8655506135a1565b601f19841661354f8661332b565b60005b8281101561357757848901518255600182019150602085019450602081019050613552565b868310156135945784890151613590601f89168261349d565b8355505b6001600288020188555050505b505050505050565b60006040820190506135be6000830185612fad565b6135cb6020830184612a09565b9392505050565b7f4552433732313a2063616c6c6572206973206e6f7420746f6b656e206f776e6560008201527f72206f7220617070726f76656400000000000000000000000000000000000000602082015250565b600061362e602d836128cd565b9150613639826135d2565b604082019050919050565b6000602082019050818103600083015261365d81613621565b9050919050565b600060a0820190506136796000830188612fad565b6136866020830187612fad565b81810360408301526136988186612919565b90506136a76060830185612fad565b6136b46080830184612898565b9695505050505050565b7f4552433732313a20696e76616c696420746f6b656e2049440000000000000000600082015250565b60006136f46018836128cd565b91506136ff826136be565b602082019050919050565b60006020820190508181036000830152613723816136e7565b9050919050565b7f4552433732313a2061646472657373207a65726f206973206e6f74206120766160008201527f6c6964206f776e65720000000000000000000000000000000000000000000000602082015250565b60006137866029836128cd565b91506137918261372a565b604082019050919050565b600060208201905081810360008301526137b581613779565b9050919050565b7f4e487b7100000000000000000000000000000000000000000000000000000000600052603260045260246000fd5b600081905092915050565b7f7b226e616d65223a202200000000000000000000000000000000000000000000600082015250565b600061382c600a836137eb565b9150613837826137f6565b600a82019050919050565b6000815461384f816131d6565b61385981866137eb565b945060018216600081146138745760018114613889576138bc565b60ff19831686528115158202860193506138bc565b6138928561332b565b60005b838110156138b457815481890152600182019150602081019050613895565b838801955050505b50505092915050565b7f202d2d204e465420233a00000000000000000000000000000000000000000000600082015250565b60006138fb600a836137eb565b9150613906826138c5565b600a82019050919050565b600061391c826128c2565b61392681856137eb565b93506139368185602086016128de565b80840191505092915050565b7f222c20226465736372697074696f6e223a202200000000000000000000000000600082015250565b60006139786013836137eb565b915061398382613942565b601382019050919050565b7f202d2d20596f75724e4654222c2022696d616765223a2022697066733a2f2f00600082015250565b60006139c4601f836137eb565b91506139cf8261398e565b601f82019050919050565b7f227d000000000000000000000000000000000000000000000000000000000000600082015250565b6000613a106002836137eb565b9150613a1b826139da565b600282019050919050565b6000613a318261381f565b9150613a3d8287613842565b9150613a48826138ee565b9150613a548286613911565b9150613a5f8261396b565b9150613a6b8285613842565b9150613a76826139b7565b9150613a828284613842565b9150613a8d82613a03565b915081905095945050505050565b7f646174613a6170706c69636174696f6e2f6a736f6e3b6261736536342c000000600082015250565b6000613ad1601d836137eb565b9150613adc82613a9b565b601d82019050919050565b6000613af282613ac4565b9150613afe8284613911565b915081905092915050565b6000604082019050613b1e6000830185612fad565b613b2b6020830184612fad565b9392505050565b7f4f776e61626c653a206e6577206f776e657220697320746865207a65726f206160008201527f6464726573730000000000000000000000000000000000000000000000000000602082015250565b6000613b8e6026836128cd565b9150613b9982613b32565b604082019050919050565b60006020820190508181036000830152613bbd81613b81565b9050919050565b60006060820190508181036000830152613bde8186612919565b9050613bed6020830185612fad565b613bfa6040830184612a09565b949350505050565b7f4552433732313a207472616e736665722066726f6d20696e636f72726563742060008201527f6f776e6572000000000000000000000000000000000000000000000000000000602082015250565b6000613c5e6025836128cd565b9150613c6982613c02565b604082019050919050565b60006020820190508181036000830152613c8d81613c51565b9050919050565b7f4552433732313a207472616e7366657220746f20746865207a65726f2061646460008201527f7265737300000000000000000000000000000000000000000000000000000000602082015250565b6000613cf06024836128cd565b9150613cfb82613c94565b604082019050919050565b60006020820190508181036000830152613d1f81613ce3565b9050919050565b7f4f776e61626c653a2063616c6c6572206973206e6f7420746865206f776e6572600082015250565b6000613d5c6020836128cd565b9150613d6782613d26565b602082019050919050565b60006020820190508181036000830152613d8b81613d4f565b9050919050565b7f4552433732313a20617070726f766520746f2063616c6c657200000000000000600082015250565b6000613dc86019836128cd565b9150613dd382613d92565b602082019050919050565b60006020820190508181036000830152613df781613dbb565b9050919050565b7f4552433732313a207472616e7366657220746f206e6f6e20455243373231526560008201527f63656976657220696d706c656d656e7465720000000000000000000000000000602082015250565b6000613e5a6032836128cd565b9150613e6582613dfe565b604082019050919050565b60006020820190508181036000830152613e8981613e4d565b9050919050565b7f4e487b7100000000000000000000000000000000000000000000000000000000600052601260045260246000fd5b7f4e487b7100000000000000000000000000000000000000000000000000000000600052601160045260246000fd5b6000613ef982612974565b9150613f0483612974565b9250828201905080821115613f1c57613f1b613ebf565b5b92915050565b6000613f2d82612974565b9150613f3883612974565b925082613f4857613f47613e90565b5b828204905092915050565b6000613f5e82612974565b9150613f6983612974565b9250828202613f7781612974565b91508282048414831517613f8e57613f8d613ebf565b5b5092915050565b600081519050919050565b600082825260208201905092915050565b6000613fbc82613f95565b613fc68185613fa0565b9350613fd68185602086016128de565b613fdf81612908565b840191505092915050565b6000608082019050613fff6000830187612a09565b61400c6020830186612a09565b6140196040830185612fad565b818103606083015261402b8184613fb1565b905095945050505050565b60008151905061404581612833565b92915050565b600060208284031215614061576140606127fd565b5b600061406f84828501614036565b91505092915050565b7f4552433732313a206d696e7420746f20746865207a65726f2061646472657373600082015250565b60006140ae6020836128cd565b91506140b982614078565b602082019050919050565b600060208201905081810360008301526140dd816140a1565b9050919050565b7f4552433732313a20746f6b656e20616c7265616479206d696e74656400000000600082015250565b600061411a601c836128cd565b9150614125826140e4565b602082019050919050565b600060208201905081810360008301526141498161410d565b905091905056fe4142434445464748494a4b4c4d4e4f505152535455565758595a6162636465666768696a6b6c6d6e6f707172737475767778797a303132333435363738392b2f416e204e465420494420257320686173206265656e206d696e74656420746f202573a2646970667358221220d7487d707952d46fc4f20f9e1cdff50585c074f6a1005f946b5b709489d8d39864736f6c63430008120033",
  "linkReferences": {},
  "deployedLinkReferences": {}
}